{
  "_format": "hh-sol-artifact-1",
  "contractName": "AlyraNFT",
  "sourceName": "contracts/NFT.sol",
  "abi": [
    {
      "inputs": [
        {
          "internalType": "string",
          "name": "_baseURI",
          "type": "string"
        }
      ],
      "stateMutability": "nonpayable",
      "type": "constructor"
    },
    {
      "inputs": [],
      "name": "ApprovalCallerNotOwnerNorApproved",
      "type": "error"
    },
    {
      "inputs": [],
      "name": "ApprovalQueryForNonexistentToken",
      "type": "error"
    },
    {
      "inputs": [],
      "name": "BalanceQueryForZeroAddress",
      "type": "error"
    },
    {
      "inputs": [],
      "name": "MintERC2309QuantityExceedsLimit",
      "type": "error"
    },
    {
      "inputs": [],
      "name": "MintToZeroAddress",
      "type": "error"
    },
    {
      "inputs": [],
      "name": "MintZeroQuantity",
      "type": "error"
    },
    {
      "inputs": [],
      "name": "NotCompatibleWithSpotMints",
      "type": "error"
    },
    {
      "inputs": [
        {
          "internalType": "address",
          "name": "owner",
          "type": "address"
        }
      ],
      "name": "OwnableInvalidOwner",
      "type": "error"
    },
    {
      "inputs": [
        {
          "internalType": "address",
          "name": "account",
          "type": "address"
        }
      ],
      "name": "OwnableUnauthorizedAccount",
      "type": "error"
    },
    {
      "inputs": [],
      "name": "OwnerQueryForNonexistentToken",
      "type": "error"
    },
    {
      "inputs": [],
      "name": "OwnershipNotInitializedForExtraData",
      "type": "error"
    },
    {
      "inputs": [],
      "name": "SequentialMintExceedsLimit",
      "type": "error"
    },
    {
      "inputs": [],
      "name": "SequentialUpToTooSmall",
      "type": "error"
    },
    {
      "inputs": [],
      "name": "SpotMintTokenIdTooSmall",
      "type": "error"
    },
    {
      "inputs": [],
      "name": "TokenAlreadyExists",
      "type": "error"
    },
    {
      "inputs": [],
      "name": "TransferCallerNotOwnerNorApproved",
      "type": "error"
    },
    {
      "inputs": [],
      "name": "TransferFromIncorrectOwner",
      "type": "error"
    },
    {
      "inputs": [],
      "name": "TransferToNonERC721ReceiverImplementer",
      "type": "error"
    },
    {
      "inputs": [],
      "name": "TransferToZeroAddress",
      "type": "error"
    },
    {
      "inputs": [],
      "name": "URIQueryForNonexistentToken",
      "type": "error"
    },
    {
      "anonymous": false,
      "inputs": [
        {
          "indexed": true,
          "internalType": "address",
          "name": "owner",
          "type": "address"
        },
        {
          "indexed": true,
          "internalType": "address",
          "name": "approved",
          "type": "address"
        },
        {
          "indexed": true,
          "internalType": "uint256",
          "name": "tokenId",
          "type": "uint256"
        }
      ],
      "name": "Approval",
      "type": "event"
    },
    {
      "anonymous": false,
      "inputs": [
        {
          "indexed": true,
          "internalType": "address",
          "name": "owner",
          "type": "address"
        },
        {
          "indexed": true,
          "internalType": "address",
          "name": "operator",
          "type": "address"
        },
        {
          "indexed": false,
          "internalType": "bool",
          "name": "approved",
          "type": "bool"
        }
      ],
      "name": "ApprovalForAll",
      "type": "event"
    },
    {
      "anonymous": false,
      "inputs": [
        {
          "indexed": true,
          "internalType": "uint256",
          "name": "fromTokenId",
          "type": "uint256"
        },
        {
          "indexed": false,
          "internalType": "uint256",
          "name": "toTokenId",
          "type": "uint256"
        },
        {
          "indexed": true,
          "internalType": "address",
          "name": "from",
          "type": "address"
        },
        {
          "indexed": true,
          "internalType": "address",
          "name": "to",
          "type": "address"
        }
      ],
      "name": "ConsecutiveTransfer",
      "type": "event"
    },
    {
      "anonymous": false,
      "inputs": [
        {
          "indexed": true,
          "internalType": "address",
          "name": "previousOwner",
          "type": "address"
        },
        {
          "indexed": true,
          "internalType": "address",
          "name": "newOwner",
          "type": "address"
        }
      ],
      "name": "OwnershipTransferred",
      "type": "event"
    },
    {
      "anonymous": false,
      "inputs": [
        {
          "indexed": true,
          "internalType": "address",
          "name": "from",
          "type": "address"
        },
        {
          "indexed": true,
          "internalType": "address",
          "name": "to",
          "type": "address"
        },
        {
          "indexed": true,
          "internalType": "uint256",
          "name": "tokenId",
          "type": "uint256"
        }
      ],
      "name": "Transfer",
      "type": "event"
    },
    {
      "inputs": [
        {
          "internalType": "address",
          "name": "to",
          "type": "address"
        },
        {
          "internalType": "uint256",
          "name": "tokenId",
          "type": "uint256"
        }
      ],
      "name": "approve",
      "outputs": [],
      "stateMutability": "payable",
      "type": "function"
    },
    {
      "inputs": [
        {
          "internalType": "address",
          "name": "owner",
          "type": "address"
        }
      ],
      "name": "balanceOf",
      "outputs": [
        {
          "internalType": "uint256",
          "name": "",
          "type": "uint256"
        }
      ],
      "stateMutability": "view",
      "type": "function"
    },
    {
      "inputs": [],
      "name": "baseURI",
      "outputs": [
        {
          "internalType": "string",
          "name": "",
          "type": "string"
        }
      ],
      "stateMutability": "view",
      "type": "function"
    },
    {
      "inputs": [
        {
          "internalType": "uint256",
          "name": "tokenId",
          "type": "uint256"
        }
      ],
      "name": "getApproved",
      "outputs": [
        {
          "internalType": "address",
          "name": "",
          "type": "address"
        }
      ],
      "stateMutability": "view",
      "type": "function"
    },
    {
      "inputs": [
        {
          "internalType": "address",
          "name": "owner",
          "type": "address"
        },
        {
          "internalType": "address",
          "name": "operator",
          "type": "address"
        }
      ],
      "name": "isApprovedForAll",
      "outputs": [
        {
          "internalType": "bool",
          "name": "",
          "type": "bool"
        }
      ],
      "stateMutability": "view",
      "type": "function"
    },
    {
      "inputs": [
        {
          "internalType": "uint256",
          "name": "_quantity",
          "type": "uint256"
        }
      ],
      "name": "mint",
      "outputs": [],
      "stateMutability": "payable",
      "type": "function"
    },
    {
      "inputs": [],
      "name": "name",
      "outputs": [
        {
          "internalType": "string",
          "name": "",
          "type": "string"
        }
      ],
      "stateMutability": "view",
      "type": "function"
    },
    {
      "inputs": [],
      "name": "owner",
      "outputs": [
        {
          "internalType": "address",
          "name": "",
          "type": "address"
        }
      ],
      "stateMutability": "view",
      "type": "function"
    },
    {
      "inputs": [
        {
          "internalType": "uint256",
          "name": "tokenId",
          "type": "uint256"
        }
      ],
      "name": "ownerOf",
      "outputs": [
        {
          "internalType": "address",
          "name": "",
          "type": "address"
        }
      ],
      "stateMutability": "view",
      "type": "function"
    },
    {
      "inputs": [],
      "name": "renounceOwnership",
      "outputs": [],
      "stateMutability": "nonpayable",
      "type": "function"
    },
    {
      "inputs": [
        {
          "internalType": "address",
          "name": "from",
          "type": "address"
        },
        {
          "internalType": "address",
          "name": "to",
          "type": "address"
        },
        {
          "internalType": "uint256",
          "name": "tokenId",
          "type": "uint256"
        }
      ],
      "name": "safeTransferFrom",
      "outputs": [],
      "stateMutability": "payable",
      "type": "function"
    },
    {
      "inputs": [
        {
          "internalType": "address",
          "name": "from",
          "type": "address"
        },
        {
          "internalType": "address",
          "name": "to",
          "type": "address"
        },
        {
          "internalType": "uint256",
          "name": "tokenId",
          "type": "uint256"
        },
        {
          "internalType": "bytes",
          "name": "_data",
          "type": "bytes"
        }
      ],
      "name": "safeTransferFrom",
      "outputs": [],
      "stateMutability": "payable",
      "type": "function"
    },
    {
      "inputs": [
        {
          "internalType": "address",
          "name": "operator",
          "type": "address"
        },
        {
          "internalType": "bool",
          "name": "approved",
          "type": "bool"
        }
      ],
      "name": "setApprovalForAll",
      "outputs": [],
      "stateMutability": "nonpayable",
      "type": "function"
    },
    {
      "inputs": [
        {
          "internalType": "string",
          "name": "_baseURI",
          "type": "string"
        }
      ],
      "name": "setBaseURI",
      "outputs": [],
      "stateMutability": "nonpayable",
      "type": "function"
    },
    {
      "inputs": [
        {
          "internalType": "bytes4",
          "name": "interfaceId",
          "type": "bytes4"
        }
      ],
      "name": "supportsInterface",
      "outputs": [
        {
          "internalType": "bool",
          "name": "",
          "type": "bool"
        }
      ],
      "stateMutability": "view",
      "type": "function"
    },
    {
      "inputs": [],
      "name": "symbol",
      "outputs": [
        {
          "internalType": "string",
          "name": "",
          "type": "string"
        }
      ],
      "stateMutability": "view",
      "type": "function"
    },
    {
      "inputs": [
        {
          "internalType": "uint256",
          "name": "_tokenId",
          "type": "uint256"
        }
      ],
      "name": "tokenURI",
      "outputs": [
        {
          "internalType": "string",
          "name": "",
          "type": "string"
        }
      ],
      "stateMutability": "view",
      "type": "function"
    },
    {
      "inputs": [],
      "name": "totalSupply",
      "outputs": [
        {
          "internalType": "uint256",
          "name": "result",
          "type": "uint256"
        }
      ],
      "stateMutability": "view",
      "type": "function"
    },
    {
      "inputs": [
        {
          "internalType": "address",
          "name": "from",
          "type": "address"
        },
        {
          "internalType": "address",
          "name": "to",
          "type": "address"
        },
        {
          "internalType": "uint256",
          "name": "tokenId",
          "type": "uint256"
        }
      ],
      "name": "transferFrom",
      "outputs": [],
      "stateMutability": "payable",
      "type": "function"
    },
    {
      "inputs": [
        {
          "internalType": "address",
          "name": "newOwner",
          "type": "address"
        }
      ],
      "name": "transferOwnership",
      "outputs": [],
      "stateMutability": "nonpayable",
      "type": "function"
    }
  ],
  "bytecode": "0x60806040523480156200001157600080fd5b50604051620030d8380380620030d8833981810160405281019062000037919062000450565b336040518060400160405280600881526020017f416c7972614e46540000000000000000000000000000000000000000000000008152506040518060400160405280600481526020017f414e4654000000000000000000000000000000000000000000000000000000008152508160029081620000b59190620006ec565b508060039081620000c79190620006ec565b50620000d8620001c060201b60201c565b600081905550620000ee620001c060201b60201c565b620000fe620001c560201b60201c565b10156200011e576200011d63fed8210f60e01b620001ed60201b60201c565b5b5050600073ffffffffffffffffffffffffffffffffffffffff168173ffffffffffffffffffffffffffffffffffffffff1603620001955760006040517f1e4fbdf70000000000000000000000000000000000000000000000000000000081526004016200018c919062000818565b60405180910390fd5b620001a681620001f760201b60201c565b5080600a9081620001b89190620006ec565b505062000835565b600090565b60007fffffffffffffffffffffffffffffffffffffffffffffffffffffffffffffffff905090565b8060005260046000fd5b6000600960009054906101000a900473ffffffffffffffffffffffffffffffffffffffff16905081600960006101000a81548173ffffffffffffffffffffffffffffffffffffffff021916908373ffffffffffffffffffffffffffffffffffffffff1602179055508173ffffffffffffffffffffffffffffffffffffffff168173ffffffffffffffffffffffffffffffffffffffff167f8be0079c531659141344cd1fd0a4f28419497f9722a3daafe3b4186f6b6457e060405160405180910390a35050565b6000604051905090565b600080fd5b600080fd5b600080fd5b600080fd5b6000601f19601f8301169050919050565b7f4e487b7100000000000000000000000000000000000000000000000000000000600052604160045260246000fd5b6200032682620002db565b810181811067ffffffffffffffff82111715620003485762000347620002ec565b5b80604052505050565b60006200035d620002bd565b90506200036b82826200031b565b919050565b600067ffffffffffffffff8211156200038e576200038d620002ec565b5b6200039982620002db565b9050602081019050919050565b60005b83811015620003c6578082015181840152602081019050620003a9565b60008484015250505050565b6000620003e9620003e38462000370565b62000351565b905082815260208101848484011115620004085762000407620002d6565b5b62000415848285620003a6565b509392505050565b600082601f830112620004355762000434620002d1565b5b815162000447848260208601620003d2565b91505092915050565b600060208284031215620004695762000468620002c7565b5b600082015167ffffffffffffffff8111156200048a5762000489620002cc565b5b62000498848285016200041d565b91505092915050565b600081519050919050565b7f4e487b7100000000000000000000000000000000000000000000000000000000600052602260045260246000fd5b60006002820490506001821680620004f457607f821691505b6020821081036200050a5762000509620004ac565b5b50919050565b60008190508160005260206000209050919050565b60006020601f8301049050919050565b600082821b905092915050565b600060088302620005747fffffffffffffffffffffffffffffffffffffffffffffffffffffffffffffffff8262000535565b62000580868362000535565b95508019841693508086168417925050509392505050565b6000819050919050565b6000819050919050565b6000620005cd620005c7620005c18462000598565b620005a2565b62000598565b9050919050565b6000819050919050565b620005e983620005ac565b62000601620005f882620005d4565b84845462000542565b825550505050565b600090565b6200061862000609565b62000625818484620005de565b505050565b5b818110156200064d57620006416000826200060e565b6001810190506200062b565b5050565b601f8211156200069c57620006668162000510565b620006718462000525565b8101602085101562000681578190505b62000699620006908562000525565b8301826200062a565b50505b505050565b600082821c905092915050565b6000620006c160001984600802620006a1565b1980831691505092915050565b6000620006dc8383620006ae565b9150826002028217905092915050565b620006f782620004a1565b67ffffffffffffffff811115620007135762000712620002ec565b5b6200071f8254620004db565b6200072c82828562000651565b600060209050601f8311600181146200076457600084156200074f578287015190505b6200075b8582620006ce565b865550620007cb565b601f198416620007748662000510565b60005b828110156200079e5784890151825560018201915060208501945060208101905062000777565b86831015620007be5784890151620007ba601f891682620006ae565b8355505b6001600288020188555050505b505050505050565b600073ffffffffffffffffffffffffffffffffffffffff82169050919050565b60006200080082620007d3565b9050919050565b6200081281620007f3565b82525050565b60006020820190506200082f600083018462000807565b92915050565b61289380620008456000396000f3fe60806040526004361061011f5760003560e01c806370a08231116100a0578063a22cb46511610064578063a22cb4651461039f578063b88d4fde146103c8578063c87b56dd146103e4578063e985e9c514610421578063f2fde38b1461045e5761011f565b806370a08231146102d9578063715018a6146103165780638da5cb5b1461032d57806395d89b4114610358578063a0712d68146103835761011f565b806323b872dd116100e757806323b872dd1461021057806342842e0e1461022c57806355f804b3146102485780636352211e146102715780636c0360eb146102ae5761011f565b806301ffc9a71461012457806306fdde0314610161578063081812fc1461018c578063095ea7b3146101c957806318160ddd146101e5575b600080fd5b34801561013057600080fd5b5061014b60048036038101906101469190611b2b565b610487565b6040516101589190611b73565b60405180910390f35b34801561016d57600080fd5b50610176610519565b6040516101839190611c1e565b60405180910390f35b34801561019857600080fd5b506101b360048036038101906101ae9190611c76565b6105ab565b6040516101c09190611ce4565b60405180910390f35b6101e360048036038101906101de9190611d2b565b610609565b005b3480156101f157600080fd5b506101fa610619565b6040516102079190611d7a565b60405180910390f35b61022a60048036038101906102259190611d95565b610666565b005b61024660048036038101906102419190611d95565b610927565b005b34801561025457600080fd5b5061026f600480360381019061026a9190611f1d565b610947565b005b34801561027d57600080fd5b5061029860048036038101906102939190611c76565b610962565b6040516102a59190611ce4565b60405180910390f35b3480156102ba57600080fd5b506102c3610974565b6040516102d09190611c1e565b60405180910390f35b3480156102e557600080fd5b5061030060048036038101906102fb9190611f66565b610a02565b60405161030d9190611d7a565b60405180910390f35b34801561032257600080fd5b5061032b610a99565b005b34801561033957600080fd5b50610342610aad565b60405161034f9190611ce4565b60405180910390f35b34801561036457600080fd5b5061036d610ad7565b60405161037a9190611c1e565b60405180910390f35b61039d60048036038101906103989190611c76565b610b69565b005b3480156103ab57600080fd5b506103c660048036038101906103c19190611fbf565b610cb0565b005b6103e260048036038101906103dd91906120a0565b610dbb565b005b3480156103f057600080fd5b5061040b60048036038101906104069190611c76565b610e0d565b6040516104189190611c1e565b60405180910390f35b34801561042d57600080fd5b5061044860048036038101906104439190612123565b610e89565b6040516104559190611b73565b60405180910390f35b34801561046a57600080fd5b5061048560048036038101906104809190611f66565b610f1d565b005b60006301ffc9a760e01b827bffffffffffffffffffffffffffffffffffffffffffffffffffffffff191614806104e257506380ac58cd60e01b827bffffffffffffffffffffffffffffffffffffffffffffffffffffffff1916145b806105125750635b5e139f60e01b827bffffffffffffffffffffffffffffffffffffffffffffffffffffffff1916145b9050919050565b60606002805461052890612192565b80601f016020809104026020016040519081016040528092919081815260200182805461055490612192565b80156105a15780601f10610576576101008083540402835291602001916105a1565b820191906000526020600020905b81548152906001019060200180831161058457829003601f168201915b5050505050905090565b60006105b682610fa3565b6105cb576105ca63cf4700e460e01b61104f565b5b6006600083815260200190815260200160002060000160009054906101000a900473ffffffffffffffffffffffffffffffffffffffff169050919050565b61061582826001611059565b5050565b6000610623611188565b600154600054030390507fffffffffffffffffffffffffffffffffffffffffffffffffffffffffffffffff61065661118d565b1461066357600854810190505b90565b6000610671826111b5565b905073ffffffffffffffffffffffffffffffffffffffff8473ffffffffffffffffffffffffffffffffffffffff161693508373ffffffffffffffffffffffffffffffffffffffff168173ffffffffffffffffffffffffffffffffffffffff16146106e6576106e563a114810060e01b61104f565b5b6000806106f2846112ce565b9150915061070881876107036112f5565b6112fd565b6107335761071d866107186112f5565b610e89565b610732576107316359c896be60e01b61104f565b5b5b6107408686866001611341565b801561074b57600082555b600560008773ffffffffffffffffffffffffffffffffffffffff1673ffffffffffffffffffffffffffffffffffffffff168152602001908152602001600020600081546001900391905081905550600560008673ffffffffffffffffffffffffffffffffffffffff1673ffffffffffffffffffffffffffffffffffffffff1681526020019081526020016000206000815460010191905081905550610819856107f5888887611347565b7c02000000000000000000000000000000000000000000000000000000001761136f565b600460008681526020019081526020016000208190555060007c020000000000000000000000000000000000000000000000000000000084160361089f576000600185019050600060046000838152602001908152602001600020540361089d57600054811461089c578360046000838152602001908152602001600020819055505b5b505b600073ffffffffffffffffffffffffffffffffffffffff8673ffffffffffffffffffffffffffffffffffffffff161690508481887fddf252ad1be2c89b69c2b068fc378daa952ba7f163c4a11628f55a4df523b3ef600080a4600081036109115761091063ea553b3460e01b61104f565b5b61091e878787600161139a565b50505050505050565b61094283838360405180602001604052806000815250610dbb565b505050565b61094f6113a0565b80600a908161095e919061236f565b5050565b600061096d826111b5565b9050919050565b600a805461098190612192565b80601f01602080910402602001604051908101604052809291908181526020018280546109ad90612192565b80156109fa5780601f106109cf576101008083540402835291602001916109fa565b820191906000526020600020905b8154815290600101906020018083116109dd57829003601f168201915b505050505081565b60008073ffffffffffffffffffffffffffffffffffffffff168273ffffffffffffffffffffffffffffffffffffffff1603610a4857610a47638f4eb60460e01b61104f565b5b67ffffffffffffffff600560008473ffffffffffffffffffffffffffffffffffffffff1673ffffffffffffffffffffffffffffffffffffffff16815260200190815260200160002054169050919050565b610aa16113a0565b610aab6000611427565b565b6000600960009054906101000a900473ffffffffffffffffffffffffffffffffffffffff16905090565b606060038054610ae690612192565b80601f0160208091040260200160405190810160405280929190818152602001828054610b1290612192565b8015610b5f5780601f10610b3457610100808354040283529160200191610b5f565b820191906000526020600020905b815481529060010190602001808311610b4257829003601f168201915b5050505050905090565b601481610b74610619565b610b7e9190612470565b1115610bbf576040517f08c379a0000000000000000000000000000000000000000000000000000000008152600401610bb6906124f0565b60405180910390fd5b600281600b60003373ffffffffffffffffffffffffffffffffffffffff1673ffffffffffffffffffffffffffffffffffffffff16815260200190815260200160002054610c0c9190612470565b1115610c4d576040517f08c379a0000000000000000000000000000000000000000000000000000000008152600401610c449061255c565b60405180910390fd5b80600b60003373ffffffffffffffffffffffffffffffffffffffff1673ffffffffffffffffffffffffffffffffffffffff1681526020019081526020016000206000828254610c9c9190612470565b92505081905550610cad33826114ed565b50565b8060076000610cbd6112f5565b73ffffffffffffffffffffffffffffffffffffffff1673ffffffffffffffffffffffffffffffffffffffff16815260200190815260200160002060008473ffffffffffffffffffffffffffffffffffffffff1673ffffffffffffffffffffffffffffffffffffffff16815260200190815260200160002060006101000a81548160ff0219169083151502179055508173ffffffffffffffffffffffffffffffffffffffff16610d6a6112f5565b73ffffffffffffffffffffffffffffffffffffffff167f17307eab39ab6107e8899845ad3d59bd9653f200f220920489ca2b5937696c3183604051610daf9190611b73565b60405180910390a35050565b610dc6848484610666565b60008373ffffffffffffffffffffffffffffffffffffffff163b14610e0757610df18484848461150b565b610e0657610e0563d1a57ed660e01b61104f565b5b5b50505050565b6060610e1882610fa3565b610e57576040517f08c379a0000000000000000000000000000000000000000000000000000000008152600401610e4e906125c8565b60405180910390fd5b600a610e628361163a565b604051602001610e739291906126f3565b6040516020818303038152906040529050919050565b6000600760008473ffffffffffffffffffffffffffffffffffffffff1673ffffffffffffffffffffffffffffffffffffffff16815260200190815260200160002060008373ffffffffffffffffffffffffffffffffffffffff1673ffffffffffffffffffffffffffffffffffffffff16815260200190815260200160002060009054906101000a900460ff16905092915050565b610f256113a0565b600073ffffffffffffffffffffffffffffffffffffffff168173ffffffffffffffffffffffffffffffffffffffff1603610f975760006040517f1e4fbdf7000000000000000000000000000000000000000000000000000000008152600401610f8e9190611ce4565b60405180910390fd5b610fa081611427565b50565b600081610fae611188565b1161104957610fbb61118d565b821115610fe557610fde6004600084815260200190815260200160002054611708565b905061104a565b6000548210156110485760005b6000600460008581526020019081526020016000205491508103611021578261101a90612722565b9250610ff2565b60007c01000000000000000000000000000000000000000000000000000000008216149150505b5b5b919050565b8060005260046000fd5b600061106483610962565b90508180156110a657508073ffffffffffffffffffffffffffffffffffffffff1661108d6112f5565b73ffffffffffffffffffffffffffffffffffffffff1614155b156110d2576110bc816110b76112f5565b610e89565b6110d1576110d063cfb3b94260e01b61104f565b5b5b836006600085815260200190815260200160002060000160006101000a81548173ffffffffffffffffffffffffffffffffffffffff021916908373ffffffffffffffffffffffffffffffffffffffff160217905550828473ffffffffffffffffffffffffffffffffffffffff168273ffffffffffffffffffffffffffffffffffffffff167f8c5be1e5ebec7d5bd14f71427d1e84f3dd0314c0f7b2291e5b200ac8c7c3b92560405160405180910390a450505050565b600090565b60007fffffffffffffffffffffffffffffffffffffffffffffffffffffffffffffffff905090565b6000816111c0611188565b116112b857600460008381526020019081526020016000205490506111e361118d565b821115611208576111f381611708565b6112c95761120763df2d9b4260e01b61104f565b5b6000810361128f57600054821061122a5761122963df2d9b4260e01b61104f565b5b5b6004600083600190039350838152602001908152602001600020549050600081031561128a5760007c0100000000000000000000000000000000000000000000000000000000821603156112c95761128963df2d9b4260e01b61104f565b5b61122b565b60007c0100000000000000000000000000000000000000000000000000000000821603156112c9575b6112c863df2d9b4260e01b61104f565b5b919050565b60008060006006600085815260200190815260200160002090508092508254915050915091565b600033905090565b600073ffffffffffffffffffffffffffffffffffffffff8316925073ffffffffffffffffffffffffffffffffffffffff821691508382148383141790509392505050565b50505050565b60008060e883901c905060e861135e868684611749565b62ffffff16901b9150509392505050565b600073ffffffffffffffffffffffffffffffffffffffff83169250814260a01b178317905092915050565b50505050565b6113a8611752565b73ffffffffffffffffffffffffffffffffffffffff166113c6610aad565b73ffffffffffffffffffffffffffffffffffffffff1614611425576113e9611752565b6040517f118cdaa700000000000000000000000000000000000000000000000000000000815260040161141c9190611ce4565b60405180910390fd5b565b6000600960009054906101000a900473ffffffffffffffffffffffffffffffffffffffff16905081600960006101000a81548173ffffffffffffffffffffffffffffffffffffffff021916908373ffffffffffffffffffffffffffffffffffffffff1602179055508173ffffffffffffffffffffffffffffffffffffffff168173ffffffffffffffffffffffffffffffffffffffff167f8be0079c531659141344cd1fd0a4f28419497f9722a3daafe3b4186f6b6457e060405160405180910390a35050565b61150782826040518060200160405280600081525061175a565b5050565b60008373ffffffffffffffffffffffffffffffffffffffff1663150b7a026115316112f5565b8786866040518563ffffffff1660e01b815260040161155394939291906127a0565b6020604051808303816000875af192505050801561158f57506040513d601f19601f8201168201806040525081019061158c9190612801565b60015b6115e7573d80600081146115bf576040519150601f19603f3d011682016040523d82523d6000602084013e6115c4565b606091505b5060008151036115df576115de63d1a57ed660e01b61104f565b5b805181602001fd5b63150b7a0260e01b7bffffffffffffffffffffffffffffffffffffffffffffffffffffffff1916817bffffffffffffffffffffffffffffffffffffffffffffffffffffffff191614915050949350505050565b606060006001611649846117d6565b01905060008167ffffffffffffffff81111561166857611667611df2565b5b6040519080825280601f01601f19166020018201604052801561169a5781602001600182028036833780820191505090505b509050600082602001820190505b6001156116fd578080600190039150507f3031323334353637383961626364656600000000000000000000000000000000600a86061a8153600a85816116f1576116f061282e565b5b049450600085036116a8575b819350505050919050565b60007c0100000000000000000000000000000000000000000000000000000000821673ffffffffffffffffffffffffffffffffffffffff8316119050919050565b60009392505050565b600033905090565b6117648383611929565b60008373ffffffffffffffffffffffffffffffffffffffff163b146117d157600080549050600083820390505b6117a4600086838060010194508661150b565b6117b9576117b863d1a57ed660e01b61104f565b5b8181106117915781600054146117ce57600080fd5b50505b505050565b600080600090507a184f03e93ff9f4daa797ed6e38ed64bf6a1f0100000000000000008310611834577a184f03e93ff9f4daa797ed6e38ed64bf6a1f010000000000000000838161182a5761182961282e565b5b0492506040810190505b6d04ee2d6d415b85acef81000000008310611871576d04ee2d6d415b85acef810000000083816118675761186661282e565b5b0492506020810190505b662386f26fc1000083106118a057662386f26fc1000083816118965761189561282e565b5b0492506010810190505b6305f5e10083106118c9576305f5e10083816118bf576118be61282e565b5b0492506008810190505b61271083106118ee5761271083816118e4576118e361282e565b5b0492506004810190505b6064831061191157606483816119075761190661282e565b5b0492506002810190505b600a8310611920576001810190505b80915050919050565b600080549050600082036119485761194763b562e8dd60e01b61104f565b5b6119556000848385611341565b611975836119666000866000611347565b61196f85611aaf565b1761136f565b6004600083815260200190815260200160002081905550600160406001901b178202600560008573ffffffffffffffffffffffffffffffffffffffff1673ffffffffffffffffffffffffffffffffffffffff16815260200190815260200160002060008282540192505081905550600073ffffffffffffffffffffffffffffffffffffffff8473ffffffffffffffffffffffffffffffffffffffff1616905060008103611a2d57611a2c632e07630060e01b61104f565b5b600083830190506000839050611a4161118d565b600183031115611a5c57611a5b6381647e3a60e01b61104f565b5b5b808360007fddf252ad1be2c89b69c2b068fc378daa952ba7f163c4a11628f55a4df523b3ef600080a4818160010191508103611a5d5781600081905550505050611aaa600084838561139a565b505050565b60006001821460e11b9050919050565b6000604051905090565b600080fd5b600080fd5b60007fffffffff0000000000000000000000000000000000000000000000000000000082169050919050565b611b0881611ad3565b8114611b1357600080fd5b50565b600081359050611b2581611aff565b92915050565b600060208284031215611b4157611b40611ac9565b5b6000611b4f84828501611b16565b91505092915050565b60008115159050919050565b611b6d81611b58565b82525050565b6000602082019050611b886000830184611b64565b92915050565b600081519050919050565b600082825260208201905092915050565b60005b83811015611bc8578082015181840152602081019050611bad565b60008484015250505050565b6000601f19601f8301169050919050565b6000611bf082611b8e565b611bfa8185611b99565b9350611c0a818560208601611baa565b611c1381611bd4565b840191505092915050565b60006020820190508181036000830152611c388184611be5565b905092915050565b6000819050919050565b611c5381611c40565b8114611c5e57600080fd5b50565b600081359050611c7081611c4a565b92915050565b600060208284031215611c8c57611c8b611ac9565b5b6000611c9a84828501611c61565b91505092915050565b600073ffffffffffffffffffffffffffffffffffffffff82169050919050565b6000611cce82611ca3565b9050919050565b611cde81611cc3565b82525050565b6000602082019050611cf96000830184611cd5565b92915050565b611d0881611cc3565b8114611d1357600080fd5b50565b600081359050611d2581611cff565b92915050565b60008060408385031215611d4257611d41611ac9565b5b6000611d5085828601611d16565b9250506020611d6185828601611c61565b9150509250929050565b611d7481611c40565b82525050565b6000602082019050611d8f6000830184611d6b565b92915050565b600080600060608486031215611dae57611dad611ac9565b5b6000611dbc86828701611d16565b9350506020611dcd86828701611d16565b9250506040611dde86828701611c61565b9150509250925092565b600080fd5b600080fd5b7f4e487b7100000000000000000000000000000000000000000000000000000000600052604160045260246000fd5b611e2a82611bd4565b810181811067ffffffffffffffff82111715611e4957611e48611df2565b5b80604052505050565b6000611e5c611abf565b9050611e688282611e21565b919050565b600067ffffffffffffffff821115611e8857611e87611df2565b5b611e9182611bd4565b9050602081019050919050565b82818337600083830152505050565b6000611ec0611ebb84611e6d565b611e52565b905082815260208101848484011115611edc57611edb611ded565b5b611ee7848285611e9e565b509392505050565b600082601f830112611f0457611f03611de8565b5b8135611f14848260208601611ead565b91505092915050565b600060208284031215611f3357611f32611ac9565b5b600082013567ffffffffffffffff811115611f5157611f50611ace565b5b611f5d84828501611eef565b91505092915050565b600060208284031215611f7c57611f7b611ac9565b5b6000611f8a84828501611d16565b91505092915050565b611f9c81611b58565b8114611fa757600080fd5b50565b600081359050611fb981611f93565b92915050565b60008060408385031215611fd657611fd5611ac9565b5b6000611fe485828601611d16565b9250506020611ff585828601611faa565b9150509250929050565b600067ffffffffffffffff82111561201a57612019611df2565b5b61202382611bd4565b9050602081019050919050565b600061204361203e84611fff565b611e52565b90508281526020810184848401111561205f5761205e611ded565b5b61206a848285611e9e565b509392505050565b600082601f83011261208757612086611de8565b5b8135612097848260208601612030565b91505092915050565b600080600080608085870312156120ba576120b9611ac9565b5b60006120c887828801611d16565b94505060206120d987828801611d16565b93505060406120ea87828801611c61565b925050606085013567ffffffffffffffff81111561210b5761210a611ace565b5b61211787828801612072565b91505092959194509250565b6000806040838503121561213a57612139611ac9565b5b600061214885828601611d16565b925050602061215985828601611d16565b9150509250929050565b7f4e487b7100000000000000000000000000000000000000000000000000000000600052602260045260246000fd5b600060028204905060018216806121aa57607f821691505b6020821081036121bd576121bc612163565b5b50919050565b60008190508160005260206000209050919050565b60006020601f8301049050919050565b600082821b905092915050565b6000600883026122257fffffffffffffffffffffffffffffffffffffffffffffffffffffffffffffffff826121e8565b61222f86836121e8565b95508019841693508086168417925050509392505050565b6000819050919050565b600061226c61226761226284611c40565b612247565b611c40565b9050919050565b6000819050919050565b61228683612251565b61229a61229282612273565b8484546121f5565b825550505050565b600090565b6122af6122a2565b6122ba81848461227d565b505050565b5b818110156122de576122d36000826122a7565b6001810190506122c0565b5050565b601f821115612323576122f4816121c3565b6122fd846121d8565b8101602085101561230c578190505b612320612318856121d8565b8301826122bf565b50505b505050565b600082821c905092915050565b600061234660001984600802612328565b1980831691505092915050565b600061235f8383612335565b9150826002028217905092915050565b61237882611b8e565b67ffffffffffffffff81111561239157612390611df2565b5b61239b8254612192565b6123a68282856122e2565b600060209050601f8311600181146123d957600084156123c7578287015190505b6123d18582612353565b865550612439565b601f1984166123e7866121c3565b60005b8281101561240f578489015182556001820191506020850194506020810190506123ea565b8683101561242c5784890151612428601f891682612335565b8355505b6001600288020188555050505b505050505050565b7f4e487b7100000000000000000000000000000000000000000000000000000000600052601160045260246000fd5b600061247b82611c40565b915061248683611c40565b925082820190508082111561249e5761249d612441565b5b92915050565b7f4d6178204c696d69742045786365656465640000000000000000000000000000600082015250565b60006124da601283611b99565b91506124e5826124a4565b602082019050919050565b60006020820190508181036000830152612509816124cd565b9050919050565b7f4d6178204c696d6974205065722057616c6c6574204578636565646564000000600082015250565b6000612546601d83611b99565b915061255182612510565b602082019050919050565b6000602082019050818103600083015261257581612539565b9050919050565b7f55524920517565727920666f72206e6f6e6578697374656e7420746f6b656e00600082015250565b60006125b2601f83611b99565b91506125bd8261257c565b602082019050919050565b600060208201905081810360008301526125e1816125a5565b9050919050565b600081905092915050565b6000815461260081612192565b61260a81866125e8565b94506001821660008114612625576001811461263a5761266d565b60ff198316865281151582028601935061266d565b612643856121c3565b60005b8381101561266557815481890152600182019150602081019050612646565b838801955050505b50505092915050565b600061268182611b8e565b61268b81856125e8565b935061269b818560208601611baa565b80840191505092915050565b7f2e6a736f6e000000000000000000000000000000000000000000000000000000600082015250565b60006126dd6005836125e8565b91506126e8826126a7565b600582019050919050565b60006126ff82856125f3565b915061270b8284612676565b9150612716826126d0565b91508190509392505050565b600061272d82611c40565b9150600082036127405761273f612441565b5b600182039050919050565b600081519050919050565b600082825260208201905092915050565b60006127728261274b565b61277c8185612756565b935061278c818560208601611baa565b61279581611bd4565b840191505092915050565b60006080820190506127b56000830187611cd5565b6127c26020830186611cd5565b6127cf6040830185611d6b565b81810360608301526127e18184612767565b905095945050505050565b6000815190506127fb81611aff565b92915050565b60006020828403121561281757612816611ac9565b5b6000612825848285016127ec565b91505092915050565b7f4e487b7100000000000000000000000000000000000000000000000000000000600052601260045260246000fdfea26469706673582212204389f2157dc5b31a4e23303c79f5ae2718a5356e9b3096b20c24ec94a2b3915064736f6c63430008140033",
  "linkReferences": {},
  "deployedLinkReferences": {}
}