{
  "_format": "hh-sol-artifact-1",
  "contractName": "LAPNFT",
  "sourceName": "contracts/LAPNFT.sol",
  "abi": [
    {
      "inputs": [],
      "stateMutability": "nonpayable",
      "type": "constructor"
    },
    {
      "inputs": [
        {
          "internalType": "address",
          "name": "sender",
          "type": "address"
        },
        {
          "internalType": "uint256",
          "name": "tokenId",
          "type": "uint256"
        },
        {
          "internalType": "address",
          "name": "owner",
          "type": "address"
        }
      ],
      "name": "ERC721IncorrectOwner",
      "type": "error"
    },
    {
      "inputs": [
        {
          "internalType": "address",
          "name": "operator",
          "type": "address"
        },
        {
          "internalType": "uint256",
          "name": "tokenId",
          "type": "uint256"
        }
      ],
      "name": "ERC721InsufficientApproval",
      "type": "error"
    },
    {
      "inputs": [
        {
          "internalType": "address",
          "name": "approver",
          "type": "address"
        }
      ],
      "name": "ERC721InvalidApprover",
      "type": "error"
    },
    {
      "inputs": [
        {
          "internalType": "address",
          "name": "operator",
          "type": "address"
        }
      ],
      "name": "ERC721InvalidOperator",
      "type": "error"
    },
    {
      "inputs": [
        {
          "internalType": "address",
          "name": "owner",
          "type": "address"
        }
      ],
      "name": "ERC721InvalidOwner",
      "type": "error"
    },
    {
      "inputs": [
        {
          "internalType": "address",
          "name": "receiver",
          "type": "address"
        }
      ],
      "name": "ERC721InvalidReceiver",
      "type": "error"
    },
    {
      "inputs": [
        {
          "internalType": "address",
          "name": "sender",
          "type": "address"
        }
      ],
      "name": "ERC721InvalidSender",
      "type": "error"
    },
    {
      "inputs": [
        {
          "internalType": "uint256",
          "name": "tokenId",
          "type": "uint256"
        }
      ],
      "name": "ERC721NonexistentToken",
      "type": "error"
    },
    {
      "inputs": [
        {
          "internalType": "address",
          "name": "owner",
          "type": "address"
        }
      ],
      "name": "OwnableInvalidOwner",
      "type": "error"
    },
    {
      "inputs": [
        {
          "internalType": "address",
          "name": "account",
          "type": "address"
        }
      ],
      "name": "OwnableUnauthorizedAccount",
      "type": "error"
    },
    {
      "anonymous": false,
      "inputs": [
        {
          "indexed": true,
          "internalType": "address",
          "name": "owner",
          "type": "address"
        },
        {
          "indexed": true,
          "internalType": "address",
          "name": "approved",
          "type": "address"
        },
        {
          "indexed": true,
          "internalType": "uint256",
          "name": "tokenId",
          "type": "uint256"
        }
      ],
      "name": "Approval",
      "type": "event"
    },
    {
      "anonymous": false,
      "inputs": [
        {
          "indexed": true,
          "internalType": "address",
          "name": "owner",
          "type": "address"
        },
        {
          "indexed": true,
          "internalType": "address",
          "name": "operator",
          "type": "address"
        },
        {
          "indexed": false,
          "internalType": "bool",
          "name": "approved",
          "type": "bool"
        }
      ],
      "name": "ApprovalForAll",
      "type": "event"
    },
    {
      "anonymous": false,
      "inputs": [
        {
          "indexed": false,
          "internalType": "uint256",
          "name": "_fromTokenId",
          "type": "uint256"
        },
        {
          "indexed": false,
          "internalType": "uint256",
          "name": "_toTokenId",
          "type": "uint256"
        }
      ],
      "name": "BatchMetadataUpdate",
      "type": "event"
    },
    {
      "anonymous": false,
      "inputs": [
        {
          "indexed": false,
          "internalType": "uint256",
          "name": "_tokenId",
          "type": "uint256"
        }
      ],
      "name": "MetadataUpdate",
      "type": "event"
    },
    {
      "anonymous": false,
      "inputs": [
        {
          "indexed": true,
          "internalType": "address",
          "name": "previousOwner",
          "type": "address"
        },
        {
          "indexed": true,
          "internalType": "address",
          "name": "newOwner",
          "type": "address"
        }
      ],
      "name": "OwnershipTransferred",
      "type": "event"
    },
    {
      "anonymous": false,
      "inputs": [
        {
          "indexed": true,
          "internalType": "address",
          "name": "from",
          "type": "address"
        },
        {
          "indexed": true,
          "internalType": "address",
          "name": "to",
          "type": "address"
        },
        {
          "indexed": true,
          "internalType": "uint256",
          "name": "tokenId",
          "type": "uint256"
        }
      ],
      "name": "Transfer",
      "type": "event"
    },
    {
      "inputs": [
        {
          "internalType": "address",
          "name": "_buyer",
          "type": "address"
        },
        {
          "internalType": "string",
          "name": "_tokenURI",
          "type": "string"
        },
        {
          "internalType": "string",
          "name": "_brand",
          "type": "string"
        },
        {
          "internalType": "string",
          "name": "_model",
          "type": "string"
        }
      ],
      "name": "MintMontres",
      "outputs": [
        {
          "internalType": "uint16",
          "name": "",
          "type": "uint16"
        }
      ],
      "stateMutability": "nonpayable",
      "type": "function"
    },
    {
      "inputs": [
        {
          "internalType": "address",
          "name": "to",
          "type": "address"
        },
        {
          "internalType": "uint256",
          "name": "tokenId",
          "type": "uint256"
        }
      ],
      "name": "approve",
      "outputs": [],
      "stateMutability": "nonpayable",
      "type": "function"
    },
    {
      "inputs": [
        {
          "internalType": "address",
          "name": "owner",
          "type": "address"
        }
      ],
      "name": "balanceOf",
      "outputs": [
        {
          "internalType": "uint256",
          "name": "",
          "type": "uint256"
        }
      ],
      "stateMutability": "view",
      "type": "function"
    },
    {
      "inputs": [],
      "name": "baseURI",
      "outputs": [
        {
          "internalType": "string",
          "name": "",
          "type": "string"
        }
      ],
      "stateMutability": "view",
      "type": "function"
    },
    {
      "inputs": [
        {
          "internalType": "uint256",
          "name": "tokenId",
          "type": "uint256"
        }
      ],
      "name": "getApproved",
      "outputs": [
        {
          "internalType": "address",
          "name": "",
          "type": "address"
        }
      ],
      "stateMutability": "view",
      "type": "function"
    },
    {
      "inputs": [
        {
          "internalType": "address",
          "name": "owner",
          "type": "address"
        },
        {
          "internalType": "address",
          "name": "operator",
          "type": "address"
        }
      ],
      "name": "isApprovedForAll",
      "outputs": [
        {
          "internalType": "bool",
          "name": "",
          "type": "bool"
        }
      ],
      "stateMutability": "view",
      "type": "function"
    },
    {
      "inputs": [],
      "name": "name",
      "outputs": [
        {
          "internalType": "string",
          "name": "",
          "type": "string"
        }
      ],
      "stateMutability": "view",
      "type": "function"
    },
    {
      "inputs": [],
      "name": "owner",
      "outputs": [
        {
          "internalType": "address",
          "name": "",
          "type": "address"
        }
      ],
      "stateMutability": "view",
      "type": "function"
    },
    {
      "inputs": [
        {
          "internalType": "uint256",
          "name": "tokenId",
          "type": "uint256"
        }
      ],
      "name": "ownerOf",
      "outputs": [
        {
          "internalType": "address",
          "name": "",
          "type": "address"
        }
      ],
      "stateMutability": "view",
      "type": "function"
    },
    {
      "inputs": [],
      "name": "renounceOwnership",
      "outputs": [],
      "stateMutability": "nonpayable",
      "type": "function"
    },
    {
      "inputs": [
        {
          "internalType": "address",
          "name": "from",
          "type": "address"
        },
        {
          "internalType": "address",
          "name": "to",
          "type": "address"
        },
        {
          "internalType": "uint256",
          "name": "tokenId",
          "type": "uint256"
        }
      ],
      "name": "safeTransferFrom",
      "outputs": [],
      "stateMutability": "nonpayable",
      "type": "function"
    },
    {
      "inputs": [
        {
          "internalType": "address",
          "name": "from",
          "type": "address"
        },
        {
          "internalType": "address",
          "name": "to",
          "type": "address"
        },
        {
          "internalType": "uint256",
          "name": "tokenId",
          "type": "uint256"
        },
        {
          "internalType": "bytes",
          "name": "data",
          "type": "bytes"
        }
      ],
      "name": "safeTransferFrom",
      "outputs": [],
      "stateMutability": "nonpayable",
      "type": "function"
    },
    {
      "inputs": [
        {
          "internalType": "address",
          "name": "operator",
          "type": "address"
        },
        {
          "internalType": "bool",
          "name": "approved",
          "type": "bool"
        }
      ],
      "name": "setApprovalForAll",
      "outputs": [],
      "stateMutability": "nonpayable",
      "type": "function"
    },
    {
      "inputs": [
        {
          "internalType": "bytes4",
          "name": "interfaceId",
          "type": "bytes4"
        }
      ],
      "name": "supportsInterface",
      "outputs": [
        {
          "internalType": "bool",
          "name": "",
          "type": "bool"
        }
      ],
      "stateMutability": "view",
      "type": "function"
    },
    {
      "inputs": [],
      "name": "symbol",
      "outputs": [
        {
          "internalType": "string",
          "name": "",
          "type": "string"
        }
      ],
      "stateMutability": "view",
      "type": "function"
    },
    {
      "inputs": [],
      "name": "tokenIds",
      "outputs": [
        {
          "internalType": "uint16",
          "name": "",
          "type": "uint16"
        }
      ],
      "stateMutability": "view",
      "type": "function"
    },
    {
      "inputs": [
        {
          "internalType": "uint256",
          "name": "tokenId",
          "type": "uint256"
        }
      ],
      "name": "tokenURI",
      "outputs": [
        {
          "internalType": "string",
          "name": "",
          "type": "string"
        }
      ],
      "stateMutability": "view",
      "type": "function"
    },
    {
      "inputs": [
        {
          "internalType": "address",
          "name": "from",
          "type": "address"
        },
        {
          "internalType": "address",
          "name": "to",
          "type": "address"
        },
        {
          "internalType": "uint256",
          "name": "tokenId",
          "type": "uint256"
        }
      ],
      "name": "transferFrom",
      "outputs": [],
      "stateMutability": "nonpayable",
      "type": "function"
    },
    {
      "inputs": [
        {
          "internalType": "address",
          "name": "newOwner",
          "type": "address"
        }
      ],
      "name": "transferOwnership",
      "outputs": [],
      "stateMutability": "nonpayable",
      "type": "function"
    }
  ],
  "bytecode": "0x60806040523480156200001157600080fd5b50336040518060400160405280600681526020017f4c61704e465400000000000000000000000000000000000000000000000000008152506040518060400160405280600381526020017f4c41500000000000000000000000000000000000000000000000000000000000815250816000908162000090919062000472565b508060019081620000a2919062000472565b505050600073ffffffffffffffffffffffffffffffffffffffff168173ffffffffffffffffffffffffffffffffffffffff16036200011a5760006040517f1e4fbdf70000000000000000000000000000000000000000000000000000000081526004016200011191906200059e565b60405180910390fd5b6200012b816200013260201b60201c565b50620005bb565b6000600760009054906101000a900473ffffffffffffffffffffffffffffffffffffffff16905081600760006101000a81548173ffffffffffffffffffffffffffffffffffffffff021916908373ffffffffffffffffffffffffffffffffffffffff1602179055508173ffffffffffffffffffffffffffffffffffffffff168173ffffffffffffffffffffffffffffffffffffffff167f8be0079c531659141344cd1fd0a4f28419497f9722a3daafe3b4186f6b6457e060405160405180910390a35050565b600081519050919050565b7f4e487b7100000000000000000000000000000000000000000000000000000000600052604160045260246000fd5b7f4e487b7100000000000000000000000000000000000000000000000000000000600052602260045260246000fd5b600060028204905060018216806200027a57607f821691505b60208210810362000290576200028f62000232565b5b50919050565b60008190508160005260206000209050919050565b60006020601f8301049050919050565b600082821b905092915050565b600060088302620002fa7fffffffffffffffffffffffffffffffffffffffffffffffffffffffffffffffff82620002bb565b620003068683620002bb565b95508019841693508086168417925050509392505050565b6000819050919050565b6000819050919050565b6000620003536200034d62000347846200031e565b62000328565b6200031e565b9050919050565b6000819050919050565b6200036f8362000332565b620003876200037e826200035a565b848454620002c8565b825550505050565b600090565b6200039e6200038f565b620003ab81848462000364565b505050565b5b81811015620003d357620003c760008262000394565b600181019050620003b1565b5050565b601f8211156200042257620003ec8162000296565b620003f784620002ab565b8101602085101562000407578190505b6200041f6200041685620002ab565b830182620003b0565b50505b505050565b600082821c905092915050565b6000620004476000198460080262000427565b1980831691505092915050565b600062000462838362000434565b9150826002028217905092915050565b6200047d82620001f8565b67ffffffffffffffff81111562000499576200049862000203565b5b620004a5825462000261565b620004b2828285620003d7565b600060209050601f831160018114620004ea5760008415620004d5578287015190505b620004e1858262000454565b86555062000551565b601f198416620004fa8662000296565b60005b828110156200052457848901518255600182019150602085019450602081019050620004fd565b8683101562000544578489015162000540601f89168262000434565b8355505b6001600288020188555050505b505050505050565b600073ffffffffffffffffffffffffffffffffffffffff82169050919050565b6000620005868262000559565b9050919050565b620005988162000579565b82525050565b6000602082019050620005b560008301846200058d565b92915050565b61284d80620005cb6000396000f3fe608060405234801561001057600080fd5b50600436106101215760003560e01c8063714cff56116100ad578063a22cb46511610071578063a22cb4651461030a578063b88d4fde14610326578063c87b56dd14610342578063e985e9c514610372578063f2fde38b146103a257610121565b8063714cff5614610276578063715018a6146102945780637ed62cdd1461029e5780638da5cb5b146102ce57806395d89b41146102ec57610121565b806323b872dd116100f457806323b872dd146101c057806342842e0e146101dc5780636352211e146101f85780636c0360eb1461022857806370a082311461024657610121565b806301ffc9a71461012657806306fdde0314610156578063081812fc14610174578063095ea7b3146101a4575b600080fd5b610140600480360381019061013b9190611c2c565b6103be565b60405161014d9190611c74565b60405180910390f35b61015e61041f565b60405161016b9190611d1f565b60405180910390f35b61018e60048036038101906101899190611d77565b6104b1565b60405161019b9190611de5565b60405180910390f35b6101be60048036038101906101b99190611e2c565b6104cd565b005b6101da60048036038101906101d59190611e6c565b6104e3565b005b6101f660048036038101906101f19190611e6c565b6105e5565b005b610212600480360381019061020d9190611d77565b610605565b60405161021f9190611de5565b60405180910390f35b610230610617565b60405161023d9190611d1f565b60405180910390f35b610260600480360381019061025b9190611ebf565b6106a5565b60405161026d9190611efb565b60405180910390f35b61027e61075f565b60405161028b9190611f33565b60405180910390f35b61029c610773565b005b6102b860048036038101906102b39190612083565b610787565b6040516102c59190611f33565b60405180910390f35b6102d661086f565b6040516102e39190611de5565b60405180910390f35b6102f4610899565b6040516103019190611d1f565b60405180910390f35b610324600480360381019061031f919061216a565b61092b565b005b610340600480360381019061033b919061224b565b610941565b005b61035c60048036038101906103579190611d77565b61095e565b6040516103699190611d1f565b60405180910390f35b61038c600480360381019061038791906122ce565b610a71565b6040516103999190611c74565b60405180910390f35b6103bc60048036038101906103b79190611ebf565b610b05565b005b6000634906490660e01b7bffffffffffffffffffffffffffffffffffffffffffffffffffffffff1916827bffffffffffffffffffffffffffffffffffffffffffffffffffffffff19161480610418575061041782610b8b565b5b9050919050565b60606000805461042e9061233d565b80601f016020809104026020016040519081016040528092919081815260200182805461045a9061233d565b80156104a75780601f1061047c576101008083540402835291602001916104a7565b820191906000526020600020905b81548152906001019060200180831161048a57829003601f168201915b5050505050905090565b60006104bc82610c6d565b506104c682610cf5565b9050919050565b6104df82826104da610d32565b610d3a565b5050565b600073ffffffffffffffffffffffffffffffffffffffff168273ffffffffffffffffffffffffffffffffffffffff16036105555760006040517f64a0ae9200000000000000000000000000000000000000000000000000000000815260040161054c9190611de5565b60405180910390fd5b60006105698383610564610d32565b610d4c565b90508373ffffffffffffffffffffffffffffffffffffffff168173ffffffffffffffffffffffffffffffffffffffff16146105df578382826040517f64283d7b0000000000000000000000000000000000000000000000000000000081526004016105d69392919061236e565b60405180910390fd5b50505050565b61060083838360405180602001604052806000815250610941565b505050565b600061061082610c6d565b9050919050565b600880546106249061233d565b80601f01602080910402602001604051908101604052809291908181526020018280546106509061233d565b801561069d5780601f106106725761010080835404028352916020019161069d565b820191906000526020600020905b81548152906001019060200180831161068057829003601f168201915b505050505081565b60008073ffffffffffffffffffffffffffffffffffffffff168273ffffffffffffffffffffffffffffffffffffffff16036107185760006040517f89c62b6400000000000000000000000000000000000000000000000000000000815260040161070f9190611de5565b60405180910390fd5b600360008373ffffffffffffffffffffffffffffffffffffffff1673ffffffffffffffffffffffffffffffffffffffff168152602001908152602001600020549050919050565b600760149054906101000a900461ffff1681565b61077b610f66565b6107856000610fed565b565b60006007601481819054906101000a900461ffff16809291906107a9906123d4565b91906101000a81548161ffff021916908361ffff16021790555050600a6040518060400160405280858152602001848152509080600181540180825580915050600190039060005260206000209060020201600090919091909150600082015181600001908161081991906125aa565b50602082015181600101908161082f91906125aa565b5050506000600760149054906101000a900461ffff169050610855868261ffff166110b3565b6108638161ffff16866111ac565b80915050949350505050565b6000600760009054906101000a900473ffffffffffffffffffffffffffffffffffffffff16905090565b6060600180546108a89061233d565b80601f01602080910402602001604051908101604052809291908181526020018280546108d49061233d565b80156109215780601f106108f657610100808354040283529160200191610921565b820191906000526020600020905b81548152906001019060200180831161090457829003601f168201915b5050505050905090565b61093d610936610d32565b8383611208565b5050565b61094c8484846104e3565b61095884848484611377565b50505050565b606061096982610c6d565b50600060066000848152602001908152602001600020805461098a9061233d565b80601f01602080910402602001604051908101604052809291908181526020018280546109b69061233d565b8015610a035780601f106109d857610100808354040283529160200191610a03565b820191906000526020600020905b8154815290600101906020018083116109e657829003601f168201915b505050505090506000610a1461152e565b90506000815103610a29578192505050610a6c565b600082511115610a5e578082604051602001610a469291906126b8565b60405160208183030381529060405292505050610a6c565b610a6784611545565b925050505b919050565b6000600560008473ffffffffffffffffffffffffffffffffffffffff1673ffffffffffffffffffffffffffffffffffffffff16815260200190815260200160002060008373ffffffffffffffffffffffffffffffffffffffff1673ffffffffffffffffffffffffffffffffffffffff16815260200190815260200160002060009054906101000a900460ff16905092915050565b610b0d610f66565b600073ffffffffffffffffffffffffffffffffffffffff168173ffffffffffffffffffffffffffffffffffffffff1603610b7f5760006040517f1e4fbdf7000000000000000000000000000000000000000000000000000000008152600401610b769190611de5565b60405180910390fd5b610b8881610fed565b50565b60007f80ac58cd000000000000000000000000000000000000000000000000000000007bffffffffffffffffffffffffffffffffffffffffffffffffffffffff1916827bffffffffffffffffffffffffffffffffffffffffffffffffffffffff19161480610c5657507f5b5e139f000000000000000000000000000000000000000000000000000000007bffffffffffffffffffffffffffffffffffffffffffffffffffffffff1916827bffffffffffffffffffffffffffffffffffffffffffffffffffffffff1916145b80610c665750610c65826115ae565b5b9050919050565b600080610c7983611618565b9050600073ffffffffffffffffffffffffffffffffffffffff168173ffffffffffffffffffffffffffffffffffffffff1603610cec57826040517f7e273289000000000000000000000000000000000000000000000000000000008152600401610ce39190611efb565b60405180910390fd5b80915050919050565b60006004600083815260200190815260200160002060009054906101000a900473ffffffffffffffffffffffffffffffffffffffff169050919050565b600033905090565b610d478383836001611655565b505050565b600080610d5884611618565b9050600073ffffffffffffffffffffffffffffffffffffffff168373ffffffffffffffffffffffffffffffffffffffff1614610d9a57610d9981848661181a565b5b600073ffffffffffffffffffffffffffffffffffffffff168173ffffffffffffffffffffffffffffffffffffffff1614610e2b57610ddc600085600080611655565b6001600360008373ffffffffffffffffffffffffffffffffffffffff1673ffffffffffffffffffffffffffffffffffffffff168152602001908152602001600020600082825403925050819055505b600073ffffffffffffffffffffffffffffffffffffffff168573ffffffffffffffffffffffffffffffffffffffff1614610eae576001600360008773ffffffffffffffffffffffffffffffffffffffff1673ffffffffffffffffffffffffffffffffffffffff168152602001908152602001600020600082825401925050819055505b846002600086815260200190815260200160002060006101000a81548173ffffffffffffffffffffffffffffffffffffffff021916908373ffffffffffffffffffffffffffffffffffffffff160217905550838573ffffffffffffffffffffffffffffffffffffffff168273ffffffffffffffffffffffffffffffffffffffff167fddf252ad1be2c89b69c2b068fc378daa952ba7f163c4a11628f55a4df523b3ef60405160405180910390a4809150509392505050565b610f6e610d32565b73ffffffffffffffffffffffffffffffffffffffff16610f8c61086f565b73ffffffffffffffffffffffffffffffffffffffff1614610feb57610faf610d32565b6040517f118cdaa7000000000000000000000000000000000000000000000000000000008152600401610fe29190611de5565b60405180910390fd5b565b6000600760009054906101000a900473ffffffffffffffffffffffffffffffffffffffff16905081600760006101000a81548173ffffffffffffffffffffffffffffffffffffffff021916908373ffffffffffffffffffffffffffffffffffffffff1602179055508173ffffffffffffffffffffffffffffffffffffffff168173ffffffffffffffffffffffffffffffffffffffff167f8be0079c531659141344cd1fd0a4f28419497f9722a3daafe3b4186f6b6457e060405160405180910390a35050565b600073ffffffffffffffffffffffffffffffffffffffff168273ffffffffffffffffffffffffffffffffffffffff16036111255760006040517f64a0ae9200000000000000000000000000000000000000000000000000000000815260040161111c9190611de5565b60405180910390fd5b600061113383836000610d4c565b9050600073ffffffffffffffffffffffffffffffffffffffff168173ffffffffffffffffffffffffffffffffffffffff16146111a75760006040517f73c6ac6e00000000000000000000000000000000000000000000000000000000815260040161119e9190611de5565b60405180910390fd5b505050565b806006600084815260200190815260200160002090816111cc91906125aa565b507ff8e1a15aba9398e019f0b49df1a4fde98ee17ae345cb5f6b5e2c27f5033e8ce7826040516111fc9190611efb565b60405180910390a15050565b600073ffffffffffffffffffffffffffffffffffffffff168273ffffffffffffffffffffffffffffffffffffffff160361127957816040517f5b08ba180000000000000000000000000000000000000000000000000000000081526004016112709190611de5565b60405180910390fd5b80600560008573ffffffffffffffffffffffffffffffffffffffff1673ffffffffffffffffffffffffffffffffffffffff16815260200190815260200160002060008473ffffffffffffffffffffffffffffffffffffffff1673ffffffffffffffffffffffffffffffffffffffff16815260200190815260200160002060006101000a81548160ff0219169083151502179055508173ffffffffffffffffffffffffffffffffffffffff168373ffffffffffffffffffffffffffffffffffffffff167f17307eab39ab6107e8899845ad3d59bd9653f200f220920489ca2b5937696c318360405161136a9190611c74565b60405180910390a3505050565b60008373ffffffffffffffffffffffffffffffffffffffff163b1115611528578273ffffffffffffffffffffffffffffffffffffffff1663150b7a026113bb610d32565b8685856040518563ffffffff1660e01b81526004016113dd9493929190612731565b6020604051808303816000875af192505050801561141957506040513d601f19601f820116820180604052508101906114169190612792565b60015b61149d573d8060008114611449576040519150601f19603f3d011682016040523d82523d6000602084013e61144e565b606091505b50600081510361149557836040517f64a0ae9200000000000000000000000000000000000000000000000000000000815260040161148c9190611de5565b60405180910390fd5b805181602001fd5b63150b7a0260e01b7bffffffffffffffffffffffffffffffffffffffffffffffffffffffff1916817bffffffffffffffffffffffffffffffffffffffffffffffffffffffff19161461152657836040517f64a0ae9200000000000000000000000000000000000000000000000000000000815260040161151d9190611de5565b60405180910390fd5b505b50505050565b606060405180602001604052806000815250905090565b606061155082610c6d565b50600061155b61152e565b9050600081511161157b57604051806020016040528060008152506115a6565b80611585846118de565b6040516020016115969291906126b8565b6040516020818303038152906040525b915050919050565b60007f01ffc9a7000000000000000000000000000000000000000000000000000000007bffffffffffffffffffffffffffffffffffffffffffffffffffffffff1916827bffffffffffffffffffffffffffffffffffffffffffffffffffffffff1916149050919050565b60006002600083815260200190815260200160002060009054906101000a900473ffffffffffffffffffffffffffffffffffffffff169050919050565b808061168e5750600073ffffffffffffffffffffffffffffffffffffffff168273ffffffffffffffffffffffffffffffffffffffff1614155b156117c257600061169e84610c6d565b9050600073ffffffffffffffffffffffffffffffffffffffff168373ffffffffffffffffffffffffffffffffffffffff161415801561170957508273ffffffffffffffffffffffffffffffffffffffff168173ffffffffffffffffffffffffffffffffffffffff1614155b801561171c575061171a8184610a71565b155b1561175e57826040517fa9fbf51f0000000000000000000000000000000000000000000000000000000081526004016117559190611de5565b60405180910390fd5b81156117c057838573ffffffffffffffffffffffffffffffffffffffff168273ffffffffffffffffffffffffffffffffffffffff167f8c5be1e5ebec7d5bd14f71427d1e84f3dd0314c0f7b2291e5b200ac8c7c3b92560405160405180910390a45b505b836004600085815260200190815260200160002060006101000a81548173ffffffffffffffffffffffffffffffffffffffff021916908373ffffffffffffffffffffffffffffffffffffffff16021790555050505050565b6118258383836119ac565b6118d957600073ffffffffffffffffffffffffffffffffffffffff168373ffffffffffffffffffffffffffffffffffffffff160361189a57806040517f7e2732890000000000000000000000000000000000000000000000000000000081526004016118919190611efb565b60405180910390fd5b81816040517f177e802f0000000000000000000000000000000000000000000000000000000081526004016118d09291906127bf565b60405180910390fd5b505050565b6060600060016118ed84611a6d565b01905060008167ffffffffffffffff81111561190c5761190b611f58565b5b6040519080825280601f01601f19166020018201604052801561193e5781602001600182028036833780820191505090505b509050600082602001820190505b6001156119a1578080600190039150507f3031323334353637383961626364656600000000000000000000000000000000600a86061a8153600a8581611995576119946127e8565b5b0494506000850361194c575b819350505050919050565b60008073ffffffffffffffffffffffffffffffffffffffff168373ffffffffffffffffffffffffffffffffffffffff1614158015611a6457508273ffffffffffffffffffffffffffffffffffffffff168473ffffffffffffffffffffffffffffffffffffffff161480611a255750611a248484610a71565b5b80611a6357508273ffffffffffffffffffffffffffffffffffffffff16611a4b83610cf5565b73ffffffffffffffffffffffffffffffffffffffff16145b5b90509392505050565b600080600090507a184f03e93ff9f4daa797ed6e38ed64bf6a1f0100000000000000008310611acb577a184f03e93ff9f4daa797ed6e38ed64bf6a1f0100000000000000008381611ac157611ac06127e8565b5b0492506040810190505b6d04ee2d6d415b85acef81000000008310611b08576d04ee2d6d415b85acef81000000008381611afe57611afd6127e8565b5b0492506020810190505b662386f26fc100008310611b3757662386f26fc100008381611b2d57611b2c6127e8565b5b0492506010810190505b6305f5e1008310611b60576305f5e1008381611b5657611b556127e8565b5b0492506008810190505b6127108310611b85576127108381611b7b57611b7a6127e8565b5b0492506004810190505b60648310611ba85760648381611b9e57611b9d6127e8565b5b0492506002810190505b600a8310611bb7576001810190505b80915050919050565b6000604051905090565b600080fd5b600080fd5b60007fffffffff0000000000000000000000000000000000000000000000000000000082169050919050565b611c0981611bd4565b8114611c1457600080fd5b50565b600081359050611c2681611c00565b92915050565b600060208284031215611c4257611c41611bca565b5b6000611c5084828501611c17565b91505092915050565b60008115159050919050565b611c6e81611c59565b82525050565b6000602082019050611c896000830184611c65565b92915050565b600081519050919050565b600082825260208201905092915050565b60005b83811015611cc9578082015181840152602081019050611cae565b60008484015250505050565b6000601f19601f8301169050919050565b6000611cf182611c8f565b611cfb8185611c9a565b9350611d0b818560208601611cab565b611d1481611cd5565b840191505092915050565b60006020820190508181036000830152611d398184611ce6565b905092915050565b6000819050919050565b611d5481611d41565b8114611d5f57600080fd5b50565b600081359050611d7181611d4b565b92915050565b600060208284031215611d8d57611d8c611bca565b5b6000611d9b84828501611d62565b91505092915050565b600073ffffffffffffffffffffffffffffffffffffffff82169050919050565b6000611dcf82611da4565b9050919050565b611ddf81611dc4565b82525050565b6000602082019050611dfa6000830184611dd6565b92915050565b611e0981611dc4565b8114611e1457600080fd5b50565b600081359050611e2681611e00565b92915050565b60008060408385031215611e4357611e42611bca565b5b6000611e5185828601611e17565b9250506020611e6285828601611d62565b9150509250929050565b600080600060608486031215611e8557611e84611bca565b5b6000611e9386828701611e17565b9350506020611ea486828701611e17565b9250506040611eb586828701611d62565b9150509250925092565b600060208284031215611ed557611ed4611bca565b5b6000611ee384828501611e17565b91505092915050565b611ef581611d41565b82525050565b6000602082019050611f106000830184611eec565b92915050565b600061ffff82169050919050565b611f2d81611f16565b82525050565b6000602082019050611f486000830184611f24565b92915050565b600080fd5b600080fd5b7f4e487b7100000000000000000000000000000000000000000000000000000000600052604160045260246000fd5b611f9082611cd5565b810181811067ffffffffffffffff82111715611faf57611fae611f58565b5b80604052505050565b6000611fc2611bc0565b9050611fce8282611f87565b919050565b600067ffffffffffffffff821115611fee57611fed611f58565b5b611ff782611cd5565b9050602081019050919050565b82818337600083830152505050565b600061202661202184611fd3565b611fb8565b90508281526020810184848401111561204257612041611f53565b5b61204d848285612004565b509392505050565b600082601f83011261206a57612069611f4e565b5b813561207a848260208601612013565b91505092915050565b6000806000806080858703121561209d5761209c611bca565b5b60006120ab87828801611e17565b945050602085013567ffffffffffffffff8111156120cc576120cb611bcf565b5b6120d887828801612055565b935050604085013567ffffffffffffffff8111156120f9576120f8611bcf565b5b61210587828801612055565b925050606085013567ffffffffffffffff81111561212657612125611bcf565b5b61213287828801612055565b91505092959194509250565b61214781611c59565b811461215257600080fd5b50565b6000813590506121648161213e565b92915050565b6000806040838503121561218157612180611bca565b5b600061218f85828601611e17565b92505060206121a085828601612155565b9150509250929050565b600067ffffffffffffffff8211156121c5576121c4611f58565b5b6121ce82611cd5565b9050602081019050919050565b60006121ee6121e9846121aa565b611fb8565b90508281526020810184848401111561220a57612209611f53565b5b612215848285612004565b509392505050565b600082601f83011261223257612231611f4e565b5b81356122428482602086016121db565b91505092915050565b6000806000806080858703121561226557612264611bca565b5b600061227387828801611e17565b945050602061228487828801611e17565b935050604061229587828801611d62565b925050606085013567ffffffffffffffff8111156122b6576122b5611bcf565b5b6122c28782880161221d565b91505092959194509250565b600080604083850312156122e5576122e4611bca565b5b60006122f385828601611e17565b925050602061230485828601611e17565b9150509250929050565b7f4e487b7100000000000000000000000000000000000000000000000000000000600052602260045260246000fd5b6000600282049050600182168061235557607f821691505b6020821081036123685761236761230e565b5b50919050565b60006060820190506123836000830186611dd6565b6123906020830185611eec565b61239d6040830184611dd6565b949350505050565b7f4e487b7100000000000000000000000000000000000000000000000000000000600052601160045260246000fd5b60006123df82611f16565b915061ffff82036123f3576123f26123a5565b5b600182019050919050565b60008190508160005260206000209050919050565b60006020601f8301049050919050565b600082821b905092915050565b6000600883026124607fffffffffffffffffffffffffffffffffffffffffffffffffffffffffffffffff82612423565b61246a8683612423565b95508019841693508086168417925050509392505050565b6000819050919050565b60006124a76124a261249d84611d41565b612482565b611d41565b9050919050565b6000819050919050565b6124c18361248c565b6124d56124cd826124ae565b848454612430565b825550505050565b600090565b6124ea6124dd565b6124f58184846124b8565b505050565b5b818110156125195761250e6000826124e2565b6001810190506124fb565b5050565b601f82111561255e5761252f816123fe565b61253884612413565b81016020851015612547578190505b61255b61255385612413565b8301826124fa565b50505b505050565b600082821c905092915050565b600061258160001984600802612563565b1980831691505092915050565b600061259a8383612570565b9150826002028217905092915050565b6125b382611c8f565b67ffffffffffffffff8111156125cc576125cb611f58565b5b6125d6825461233d565b6125e182828561251d565b600060209050601f8311600181146126145760008415612602578287015190505b61260c858261258e565b865550612674565b601f198416612622866123fe565b60005b8281101561264a57848901518255600182019150602085019450602081019050612625565b868310156126675784890151612663601f891682612570565b8355505b6001600288020188555050505b505050505050565b600081905092915050565b600061269282611c8f565b61269c818561267c565b93506126ac818560208601611cab565b80840191505092915050565b60006126c48285612687565b91506126d08284612687565b91508190509392505050565b600081519050919050565b600082825260208201905092915050565b6000612703826126dc565b61270d81856126e7565b935061271d818560208601611cab565b61272681611cd5565b840191505092915050565b60006080820190506127466000830187611dd6565b6127536020830186611dd6565b6127606040830185611eec565b818103606083015261277281846126f8565b905095945050505050565b60008151905061278c81611c00565b92915050565b6000602082840312156127a8576127a7611bca565b5b60006127b68482850161277d565b91505092915050565b60006040820190506127d46000830185611dd6565b6127e16020830184611eec565b9392505050565b7f4e487b7100000000000000000000000000000000000000000000000000000000600052601260045260246000fdfea2646970667358221220b9c1da81382ed233651dd375dc66a517836cfe1640f315e748559bf7baf89cd464736f6c63430008140033",
  "linkReferences": {},
  "deployedLinkReferences": {}
}