{
  "_format": "hh-sol-artifact-1",
  "contractName": "Voting",
  "sourceName": "contracts/Voting.sol",
  "abi": [
    {
      "inputs": [],
      "stateMutability": "nonpayable",
      "type": "constructor"
    },
    {
      "inputs": [
        {
          "internalType": "address",
          "name": "owner",
          "type": "address"
        }
      ],
      "name": "OwnableInvalidOwner",
      "type": "error"
    },
    {
      "inputs": [
        {
          "internalType": "address",
          "name": "account",
          "type": "address"
        }
      ],
      "name": "OwnableUnauthorizedAccount",
      "type": "error"
    },
    {
      "anonymous": false,
      "inputs": [
        {
          "indexed": true,
          "internalType": "address",
          "name": "previousOwner",
          "type": "address"
        },
        {
          "indexed": true,
          "internalType": "address",
          "name": "newOwner",
          "type": "address"
        }
      ],
      "name": "OwnershipTransferred",
      "type": "event"
    },
    {
      "anonymous": false,
      "inputs": [
        {
          "indexed": false,
          "internalType": "uint256",
          "name": "proposalId",
          "type": "uint256"
        }
      ],
      "name": "ProposalRegistered",
      "type": "event"
    },
    {
      "anonymous": false,
      "inputs": [
        {
          "indexed": false,
          "internalType": "address",
          "name": "voter",
          "type": "address"
        },
        {
          "indexed": false,
          "internalType": "uint256",
          "name": "proposalId",
          "type": "uint256"
        }
      ],
      "name": "Voted",
      "type": "event"
    },
    {
      "anonymous": false,
      "inputs": [
        {
          "indexed": false,
          "internalType": "address",
          "name": "voterAddress",
          "type": "address"
        }
      ],
      "name": "VoterRegistered",
      "type": "event"
    },
    {
      "anonymous": false,
      "inputs": [
        {
          "indexed": false,
          "internalType": "enum Voting.WorkflowStatus",
          "name": "previousStatus",
          "type": "uint8"
        },
        {
          "indexed": false,
          "internalType": "enum Voting.WorkflowStatus",
          "name": "newStatus",
          "type": "uint8"
        }
      ],
      "name": "WorkflowStatusChange",
      "type": "event"
    },
    {
      "inputs": [
        {
          "internalType": "string",
          "name": "_desc",
          "type": "string"
        }
      ],
      "name": "addProposal",
      "outputs": [],
      "stateMutability": "nonpayable",
      "type": "function"
    },
    {
      "inputs": [
        {
          "internalType": "address",
          "name": "_addr",
          "type": "address"
        }
      ],
      "name": "addVoter",
      "outputs": [],
      "stateMutability": "nonpayable",
      "type": "function"
    },
    {
      "inputs": [],
      "name": "endProposalsRegistering",
      "outputs": [],
      "stateMutability": "nonpayable",
      "type": "function"
    },
    {
      "inputs": [],
      "name": "endVotingSession",
      "outputs": [],
      "stateMutability": "nonpayable",
      "type": "function"
    },
    {
      "inputs": [
        {
          "internalType": "uint256",
          "name": "_id",
          "type": "uint256"
        }
      ],
      "name": "getOneProposal",
      "outputs": [
        {
          "components": [
            {
              "internalType": "string",
              "name": "description",
              "type": "string"
            },
            {
              "internalType": "uint256",
              "name": "voteCount",
              "type": "uint256"
            }
          ],
          "internalType": "struct Voting.Proposal",
          "name": "",
          "type": "tuple"
        }
      ],
      "stateMutability": "view",
      "type": "function"
    },
    {
      "inputs": [
        {
          "internalType": "address",
          "name": "_addr",
          "type": "address"
        }
      ],
      "name": "getVoter",
      "outputs": [
        {
          "components": [
            {
              "internalType": "bool",
              "name": "isRegistered",
              "type": "bool"
            },
            {
              "internalType": "bool",
              "name": "hasVoted",
              "type": "bool"
            },
            {
              "internalType": "uint256",
              "name": "votedProposalId",
              "type": "uint256"
            }
          ],
          "internalType": "struct Voting.Voter",
          "name": "",
          "type": "tuple"
        }
      ],
      "stateMutability": "view",
      "type": "function"
    },
    {
      "inputs": [],
      "name": "owner",
      "outputs": [
        {
          "internalType": "address",
          "name": "",
          "type": "address"
        }
      ],
      "stateMutability": "view",
      "type": "function"
    },
    {
      "inputs": [],
      "name": "renounceOwnership",
      "outputs": [],
      "stateMutability": "nonpayable",
      "type": "function"
    },
    {
      "inputs": [
        {
          "internalType": "uint256",
          "name": "_id",
          "type": "uint256"
        }
      ],
      "name": "setVote",
      "outputs": [],
      "stateMutability": "nonpayable",
      "type": "function"
    },
    {
      "inputs": [],
      "name": "startProposalsRegistering",
      "outputs": [],
      "stateMutability": "nonpayable",
      "type": "function"
    },
    {
      "inputs": [],
      "name": "startVotingSession",
      "outputs": [],
      "stateMutability": "nonpayable",
      "type": "function"
    },
    {
      "inputs": [],
      "name": "tallyVotes",
      "outputs": [],
      "stateMutability": "nonpayable",
      "type": "function"
    },
    {
      "inputs": [
        {
          "internalType": "address",
          "name": "newOwner",
          "type": "address"
        }
      ],
      "name": "transferOwnership",
      "outputs": [],
      "stateMutability": "nonpayable",
      "type": "function"
    },
    {
      "inputs": [],
      "name": "winningProposalID",
      "outputs": [
        {
          "internalType": "uint256",
          "name": "",
          "type": "uint256"
        }
      ],
      "stateMutability": "view",
      "type": "function"
    },
    {
      "inputs": [],
      "name": "workflowStatus",
      "outputs": [
        {
          "internalType": "enum Voting.WorkflowStatus",
          "name": "",
          "type": "uint8"
        }
      ],
      "stateMutability": "view",
      "type": "function"
    }
  ],
  "bytecode": "0x60806040523480156200001157600080fd5b5033600073ffffffffffffffffffffffffffffffffffffffff168173ffffffffffffffffffffffffffffffffffffffff1603620000885760006040517f1e4fbdf70000000000000000000000000000000000000000000000000000000081526004016200007f9190620001a9565b60405180910390fd5b6200009981620000a060201b60201c565b50620001c6565b60008060009054906101000a900473ffffffffffffffffffffffffffffffffffffffff169050816000806101000a81548173ffffffffffffffffffffffffffffffffffffffff021916908373ffffffffffffffffffffffffffffffffffffffff1602179055508173ffffffffffffffffffffffffffffffffffffffff168173ffffffffffffffffffffffffffffffffffffffff167f8be0079c531659141344cd1fd0a4f28419497f9722a3daafe3b4186f6b6457e060405160405180910390a35050565b600073ffffffffffffffffffffffffffffffffffffffff82169050919050565b6000620001918262000164565b9050919050565b620001a38162000184565b82525050565b6000602082019050620001c0600083018462000198565b92915050565b61233880620001d66000396000f3fe608060405234801561001057600080fd5b50600436106100f55760003560e01c8063a7bfab1611610097578063d4f50f9811610066578063d4f50f98146101ee578063ee74c6781461021e578063f2fde38b14610228578063f4ab9adf14610244576100f5565b8063a7bfab16146101b2578063bdc01431146101bc578063c7038a4e146101da578063c88af42f146101e4576100f5565b8063715018a6116100d3578063715018a61461013c5780638da5cb5b14610146578063a1edffa214610164578063a2788cce14610182576100f5565b8063230796ae146100fa5780632fdae3c514610116578063378a217814610132575b600080fd5b610114600480360381019061010f9190611432565b610260565b005b610130600480360381019061012b91906114c4565b6105b7565b005b61013a61083a565b005b610144610920565b005b61014e610934565b60405161015b9190611552565b60405180910390f35b61016c61095d565b60405161017991906115e4565b60405180910390f35b61019c60048036038101906101979190611432565b610970565b6040516101a991906116db565b60405180910390f35b6101ba610ad7565b005b6101c4610bbd565b6040516101d1919061170c565b60405180910390f35b6101e2610bc3565b005b6101ec610d3e565b005b61020860048036038101906102039190611753565b610e23565b60405161021591906117dd565b60405180910390f35b610226610f4b565b005b610242600480360381019061023d9190611753565b611031565b005b61025e60048036038101906102599190611753565b6110b7565b005b600460003373ffffffffffffffffffffffffffffffffffffffff1673ffffffffffffffffffffffffffffffffffffffff16815260200190815260200160002060000160009054906101000a900460ff166102ef576040517f08c379a00000000000000000000000000000000000000000000000000000000081526004016102e690611855565b60405180910390fd5b600360058111156103035761030261156d565b5b600260009054906101000a900460ff1660058111156103255761032461156d565b5b14610365576040517f08c379a000000000000000000000000000000000000000000000000000000000815260040161035c906118e7565b60405180910390fd5b60011515600460003373ffffffffffffffffffffffffffffffffffffffff1673ffffffffffffffffffffffffffffffffffffffff16815260200190815260200160002060000160019054906101000a900460ff161515036103fb576040517f08c379a00000000000000000000000000000000000000000000000000000000081526004016103f290611953565b60405180910390fd5b6003805490508110610442576040517f08c379a0000000000000000000000000000000000000000000000000000000008152600401610439906119bf565b60405180910390fd5b80600460003373ffffffffffffffffffffffffffffffffffffffff1673ffffffffffffffffffffffffffffffffffffffff168152602001908152602001600020600101819055506001600460003373ffffffffffffffffffffffffffffffffffffffff1673ffffffffffffffffffffffffffffffffffffffff16815260200190815260200160002060000160016101000a81548160ff021916908315150217905550600381815481106104f8576104f76119df565b5b9060005260206000209060020201600101600081548092919061051a90611a3d565b9190505550600360015481548110610535576105346119df565b5b9060005260206000209060020201600101546003828154811061055b5761055a6119df565b5b906000526020600020906002020160010154111561057b57806001819055505b7f4d99b957a2bc29a30ebd96a7be8e68fe50a3c701db28a91436490b7d53870ca433826040516105ac929190611a85565b60405180910390a150565b600460003373ffffffffffffffffffffffffffffffffffffffff1673ffffffffffffffffffffffffffffffffffffffff16815260200190815260200160002060000160009054906101000a900460ff16610646576040517f08c379a000000000000000000000000000000000000000000000000000000000815260040161063d90611855565b60405180910390fd5b6001600581111561065a5761065961156d565b5b600260009054906101000a900460ff16600581111561067c5761067b61156d565b5b146106bc576040517f08c379a00000000000000000000000000000000000000000000000000000000081526004016106b390611afa565b60405180910390fd5b6040516020016106cb90611b40565b6040516020818303038152906040528051906020012082826040516020016106f4929190611b9c565b604051602081830303815290604052805190602001200361074a576040517f08c379a000000000000000000000000000000000000000000000000000000000815260040161074190611c32565b60405180910390fd5b6107526113b3565b82828080601f016020809104026020016040519081016040528093929190818152602001838380828437600081840152601f19601f820116905080830192505050505050508160000181905250600381908060018154018082558091505060019003906000526020600020906002020160009091909190915060008201518160000190816107e09190611e8d565b506020820151816001015550507f92e393e9b54e2f801d3ea4beb0c5e71a21cc34a5d34b77d0fb8a3aa1650dc18f60016003805490506108209190611f5f565b60405161082d919061170c565b60405180910390a1505050565b610842611260565b600460058111156108565761085561156d565b5b600260009054906101000a900460ff1660058111156108785761087761156d565b5b146108b8576040517f08c379a00000000000000000000000000000000000000000000000000000000081526004016108af90612005565b60405180910390fd5b6005600260006101000a81548160ff021916908360058111156108de576108dd61156d565b5b02179055507f0a97a4ee45751e2abf3e4fc8946939630b11b371ea8ae39ccdc3056e98f5cc3f60046005604051610916929190612025565b60405180910390a1565b610928611260565b61093260006112e7565b565b60008060009054906101000a900473ffffffffffffffffffffffffffffffffffffffff16905090565b600260009054906101000a900460ff1681565b6109786113b3565b600460003373ffffffffffffffffffffffffffffffffffffffff1673ffffffffffffffffffffffffffffffffffffffff16815260200190815260200160002060000160009054906101000a900460ff16610a07576040517f08c379a00000000000000000000000000000000000000000000000000000000081526004016109fe90611855565b60405180910390fd5b60038281548110610a1b57610a1a6119df565b5b9060005260206000209060020201604051806040016040529081600082018054610a4490611cb0565b80601f0160208091040260200160405190810160405280929190818152602001828054610a7090611cb0565b8015610abd5780601f10610a9257610100808354040283529160200191610abd565b820191906000526020600020905b815481529060010190602001808311610aa057829003601f168201915b505050505081526020016001820154815250509050919050565b610adf611260565b60036005811115610af357610af261156d565b5b600260009054906101000a900460ff166005811115610b1557610b1461156d565b5b14610b55576040517f08c379a0000000000000000000000000000000000000000000000000000000008152600401610b4c906118e7565b60405180910390fd5b6004600260006101000a81548160ff02191690836005811115610b7b57610b7a61156d565b5b02179055507f0a97a4ee45751e2abf3e4fc8946939630b11b371ea8ae39ccdc3056e98f5cc3f60036004604051610bb3929190612025565b60405180910390a1565b60015481565b610bcb611260565b60006005811115610bdf57610bde61156d565b5b600260009054906101000a900460ff166005811115610c0157610c0061156d565b5b14610c41576040517f08c379a0000000000000000000000000000000000000000000000000000000008152600401610c38906120c0565b60405180910390fd5b6001600260006101000a81548160ff02191690836005811115610c6757610c6661156d565b5b0217905550610c746113b3565b6040518060400160405280600781526020017f47454e4553495300000000000000000000000000000000000000000000000000815250816000018190525060038190806001815401808255809150506001900390600052602060002090600202016000909190919091506000820151816000019081610cf39190611e8d565b506020820151816001015550507f0a97a4ee45751e2abf3e4fc8946939630b11b371ea8ae39ccdc3056e98f5cc3f60006001604051610d33929190612025565b60405180910390a150565b610d46611260565b60016005811115610d5a57610d5961156d565b5b600260009054906101000a900460ff166005811115610d7c57610d7b61156d565b5b14610dbc576040517f08c379a0000000000000000000000000000000000000000000000000000000008152600401610db390612152565b60405180910390fd5b60028060006101000a81548160ff02191690836005811115610de157610de061156d565b5b02179055507f0a97a4ee45751e2abf3e4fc8946939630b11b371ea8ae39ccdc3056e98f5cc3f60016002604051610e19929190612025565b60405180910390a1565b610e2b6113cd565b600460003373ffffffffffffffffffffffffffffffffffffffff1673ffffffffffffffffffffffffffffffffffffffff16815260200190815260200160002060000160009054906101000a900460ff16610eba576040517f08c379a0000000000000000000000000000000000000000000000000000000008152600401610eb190611855565b60405180910390fd5b600460008373ffffffffffffffffffffffffffffffffffffffff1673ffffffffffffffffffffffffffffffffffffffff1681526020019081526020016000206040518060600160405290816000820160009054906101000a900460ff161515151581526020016000820160019054906101000a900460ff161515151581526020016001820154815250509050919050565b610f53611260565b60026005811115610f6757610f6661156d565b5b600260009054906101000a900460ff166005811115610f8957610f8861156d565b5b14610fc9576040517f08c379a0000000000000000000000000000000000000000000000000000000008152600401610fc0906121e4565b60405180910390fd5b6003600260006101000a81548160ff02191690836005811115610fef57610fee61156d565b5b02179055507f0a97a4ee45751e2abf3e4fc8946939630b11b371ea8ae39ccdc3056e98f5cc3f60026003604051611027929190612025565b60405180910390a1565b611039611260565b600073ffffffffffffffffffffffffffffffffffffffff168173ffffffffffffffffffffffffffffffffffffffff16036110ab5760006040517f1e4fbdf70000000000000000000000000000000000000000000000000000000081526004016110a29190611552565b60405180910390fd5b6110b4816112e7565b50565b6110bf611260565b600060058111156110d3576110d261156d565b5b600260009054906101000a900460ff1660058111156110f5576110f461156d565b5b14611135576040517f08c379a000000000000000000000000000000000000000000000000000000000815260040161112c90612276565b60405180910390fd5b60011515600460008373ffffffffffffffffffffffffffffffffffffffff1673ffffffffffffffffffffffffffffffffffffffff16815260200190815260200160002060000160009054906101000a900460ff161515036111cb576040517f08c379a00000000000000000000000000000000000000000000000000000000081526004016111c2906122e2565b60405180910390fd5b6001600460008373ffffffffffffffffffffffffffffffffffffffff1673ffffffffffffffffffffffffffffffffffffffff16815260200190815260200160002060000160006101000a81548160ff0219169083151502179055507fb6be2187d059cc2a55fe29e0e503b566e1e0f8c8780096e185429350acffd3dd816040516112559190611552565b60405180910390a150565b6112686113ab565b73ffffffffffffffffffffffffffffffffffffffff16611286610934565b73ffffffffffffffffffffffffffffffffffffffff16146112e5576112a96113ab565b6040517f118cdaa70000000000000000000000000000000000000000000000000000000081526004016112dc9190611552565b60405180910390fd5b565b60008060009054906101000a900473ffffffffffffffffffffffffffffffffffffffff169050816000806101000a81548173ffffffffffffffffffffffffffffffffffffffff021916908373ffffffffffffffffffffffffffffffffffffffff1602179055508173ffffffffffffffffffffffffffffffffffffffff168173ffffffffffffffffffffffffffffffffffffffff167f8be0079c531659141344cd1fd0a4f28419497f9722a3daafe3b4186f6b6457e060405160405180910390a35050565b600033905090565b604051806040016040528060608152602001600081525090565b6040518060600160405280600015158152602001600015158152602001600081525090565b600080fd5b600080fd5b6000819050919050565b61140f816113fc565b811461141a57600080fd5b50565b60008135905061142c81611406565b92915050565b600060208284031215611448576114476113f2565b5b60006114568482850161141d565b91505092915050565b600080fd5b600080fd5b600080fd5b60008083601f8401126114845761148361145f565b5b8235905067ffffffffffffffff8111156114a1576114a0611464565b5b6020830191508360018202830111156114bd576114bc611469565b5b9250929050565b600080602083850312156114db576114da6113f2565b5b600083013567ffffffffffffffff8111156114f9576114f86113f7565b5b6115058582860161146e565b92509250509250929050565b600073ffffffffffffffffffffffffffffffffffffffff82169050919050565b600061153c82611511565b9050919050565b61154c81611531565b82525050565b60006020820190506115676000830184611543565b92915050565b7f4e487b7100000000000000000000000000000000000000000000000000000000600052602160045260246000fd5b600681106115ad576115ac61156d565b5b50565b60008190506115be8261159c565b919050565b60006115ce826115b0565b9050919050565b6115de816115c3565b82525050565b60006020820190506115f960008301846115d5565b92915050565b600081519050919050565b600082825260208201905092915050565b60005b8381101561163957808201518184015260208101905061161e565b60008484015250505050565b6000601f19601f8301169050919050565b6000611661826115ff565b61166b818561160a565b935061167b81856020860161161b565b61168481611645565b840191505092915050565b611698816113fc565b82525050565b600060408301600083015184820360008601526116bb8282611656565b91505060208301516116d0602086018261168f565b508091505092915050565b600060208201905081810360008301526116f5818461169e565b905092915050565b611706816113fc565b82525050565b600060208201905061172160008301846116fd565b92915050565b61173081611531565b811461173b57600080fd5b50565b60008135905061174d81611727565b92915050565b600060208284031215611769576117686113f2565b5b60006117778482850161173e565b91505092915050565b60008115159050919050565b61179581611780565b82525050565b6060820160008201516117b1600085018261178c565b5060208201516117c4602085018261178c565b5060408201516117d7604085018261168f565b50505050565b60006060820190506117f2600083018461179b565b92915050565b600082825260208201905092915050565b7f596f75277265206e6f74206120766f7465720000000000000000000000000000600082015250565b600061183f6012836117f8565b915061184a82611809565b602082019050919050565b6000602082019050818103600083015261186e81611832565b9050919050565b7f566f74696e672073657373696f6e20686176656e74207374617274656420796560008201527f7400000000000000000000000000000000000000000000000000000000000000602082015250565b60006118d16021836117f8565b91506118dc82611875565b604082019050919050565b60006020820190508181036000830152611900816118c4565b9050919050565b7f596f75206861766520616c726561647920766f74656400000000000000000000600082015250565b600061193d6016836117f8565b915061194882611907565b602082019050919050565b6000602082019050818103600083015261196c81611930565b9050919050565b7f50726f706f73616c206e6f7420666f756e640000000000000000000000000000600082015250565b60006119a96012836117f8565b91506119b482611973565b602082019050919050565b600060208201905081810360008301526119d88161199c565b9050919050565b7f4e487b7100000000000000000000000000000000000000000000000000000000600052603260045260246000fd5b7f4e487b7100000000000000000000000000000000000000000000000000000000600052601160045260246000fd5b6000611a48826113fc565b91507fffffffffffffffffffffffffffffffffffffffffffffffffffffffffffffffff8203611a7a57611a79611a0e565b5b600182019050919050565b6000604082019050611a9a6000830185611543565b611aa760208301846116fd565b9392505050565b7f50726f706f73616c7320617265206e6f7420616c6c6f77656420796574000000600082015250565b6000611ae4601d836117f8565b9150611aef82611aae565b602082019050919050565b60006020820190508181036000830152611b1381611ad7565b9050919050565b50565b6000611b2a6000836117f8565b9150611b3582611b1a565b600082019050919050565b60006020820190508181036000830152611b5981611b1d565b9050919050565b82818337600083830152505050565b6000611b7b83856117f8565b9350611b88838584611b60565b611b9183611645565b840190509392505050565b60006020820190508181036000830152611bb7818486611b6f565b90509392505050565b7f566f7573206e6520706f7576657a20706173206e65207269656e2070726f706f60008201527f7365720000000000000000000000000000000000000000000000000000000000602082015250565b6000611c1c6023836117f8565b9150611c2782611bc0565b604082019050919050565b60006020820190508181036000830152611c4b81611c0f565b9050919050565b7f4e487b7100000000000000000000000000000000000000000000000000000000600052604160045260246000fd5b7f4e487b7100000000000000000000000000000000000000000000000000000000600052602260045260246000fd5b60006002820490506001821680611cc857607f821691505b602082108103611cdb57611cda611c81565b5b50919050565b60008190508160005260206000209050919050565b60006020601f8301049050919050565b600082821b905092915050565b600060088302611d437fffffffffffffffffffffffffffffffffffffffffffffffffffffffffffffffff82611d06565b611d4d8683611d06565b95508019841693508086168417925050509392505050565b6000819050919050565b6000611d8a611d85611d80846113fc565b611d65565b6113fc565b9050919050565b6000819050919050565b611da483611d6f565b611db8611db082611d91565b848454611d13565b825550505050565b600090565b611dcd611dc0565b611dd8818484611d9b565b505050565b5b81811015611dfc57611df1600082611dc5565b600181019050611dde565b5050565b601f821115611e4157611e1281611ce1565b611e1b84611cf6565b81016020851015611e2a578190505b611e3e611e3685611cf6565b830182611ddd565b50505b505050565b600082821c905092915050565b6000611e6460001984600802611e46565b1980831691505092915050565b6000611e7d8383611e53565b9150826002028217905092915050565b611e96826115ff565b67ffffffffffffffff811115611eaf57611eae611c52565b5b611eb98254611cb0565b611ec4828285611e00565b600060209050601f831160018114611ef75760008415611ee5578287015190505b611eef8582611e71565b865550611f57565b601f198416611f0586611ce1565b60005b82811015611f2d57848901518255600182019150602085019450602081019050611f08565b86831015611f4a5784890151611f46601f891682611e53565b8355505b6001600288020188555050505b505050505050565b6000611f6a826113fc565b9150611f75836113fc565b9250828203905081811115611f8d57611f8c611a0e565b5b92915050565b7f43757272656e7420737461747573206973206e6f7420766f74696e672073657360008201527f73696f6e20656e64656400000000000000000000000000000000000000000000602082015250565b6000611fef602a836117f8565b9150611ffa82611f93565b604082019050919050565b6000602082019050818103600083015261201e81611fe2565b9050919050565b600060408201905061203a60008301856115d5565b61204760208301846115d5565b9392505050565b7f5265676973746572696e672070726f706f73616c732063616e7420626520737460008201527f6172746564206e6f770000000000000000000000000000000000000000000000602082015250565b60006120aa6029836117f8565b91506120b58261204e565b604082019050919050565b600060208201905081810360008301526120d98161209d565b9050919050565b7f5265676973746572696e672070726f706f73616c7320686176656e742073746160008201527f7274656420796574000000000000000000000000000000000000000000000000602082015250565b600061213c6028836117f8565b9150612147826120e0565b604082019050919050565b6000602082019050818103600083015261216b8161212f565b9050919050565b7f5265676973746572696e672070726f706f73616c73207068617365206973206e60008201527f6f742066696e6973686564000000000000000000000000000000000000000000602082015250565b60006121ce602b836117f8565b91506121d982612172565b604082019050919050565b600060208201905081810360008301526121fd816121c1565b9050919050565b7f566f7465727320726567697374726174696f6e206973206e6f74206f70656e2060008201527f7965740000000000000000000000000000000000000000000000000000000000602082015250565b60006122606023836117f8565b915061226b82612204565b604082019050919050565b6000602082019050818103600083015261228f81612253565b9050919050565b7f416c726561647920726567697374657265640000000000000000000000000000600082015250565b60006122cc6012836117f8565b91506122d782612296565b602082019050919050565b600060208201905081810360008301526122fb816122bf565b905091905056fea264697066735822122032c580bb9ac1cc6a2c0e0a77ca3174b34c58ade6ca08051601cf8a321247c45364736f6c63430008140033",
  "linkReferences": {},
  "deployedLinkReferences": {}
}